{
  "contractName": "Counter",
  "abi": [
    {
      "inputs": [
        {
          "internalType": "uint256",
          "name": "_account",
          "type": "uint256"
        }
      ],
      "stateMutability": "nonpayable",
      "type": "constructor"
    },
    {
      "inputs": [],
      "name": "account",
      "outputs": [
        {
          "internalType": "uint256",
          "name": "",
          "type": "uint256"
        }
      ],
      "stateMutability": "view",
      "type": "function",
      "constant": true
    },
    {
      "inputs": [],
      "name": "increment",
      "outputs": [],
      "stateMutability": "nonpayable",
      "type": "function"
    },
    {
      "inputs": [],
      "name": "decrement",
      "outputs": [],
      "stateMutability": "nonpayable",
      "type": "function"
    }
  ],
  "bytecode": "0x608060405234801561001057600080fd5b5060405161012a38038061012a8339818101604052602081101561003357600080fd5b8101908080519060200190929190505050806000819055505060d08061005a6000396000f3fe6080604052348015600f57600080fd5b5060043610603c5760003560e01c80632baeceb71460415780635dab2420146049578063d09de08a146065575b600080fd5b6047606d565b005b604f6081565b6040518082815260200191505060405180910390f35b606b6087565b005b600080815480929190600190039190505550565b60005481565b600080815480929190600101919050555056fea2646970667358221220358253307c80ee6e6e79e3de9d42e560270382de3b931183c43cb5de68a2b80a64736f6c63430007060033",
  "immutableReferences": {},
  "source": "// SPDX-License-Identifier: MIT\npragma solidity >=0.7.6 <0.8.0;\n\ncontract Counter {\n    // set as public to being able to know the amount\n    uint public account;\n\n    constructor(uint _account){\n        account = _account;\n    }\n\n    function increment() external {\n        account++;\n    }\n\n    function decrement() external {\n        account--;\n    }\n\n}",
  "sourcePath": "/home/joseramon/workspace/atsistemas/formaciones/blockchain/code/part_2/contracts/Counter.sol",
  "compiler": {
    "name": "solc",
    "version": "0.7.6+commit.7338295f.Emscripten.clang"
  },
  "schemaVersion": "3.3.3",
  "updatedAt": "2021-01-22T16:15:09.211Z",
  "networkType": "ethereum",
  "devdoc": {
    "kind": "dev",
    "methods": {},
    "version": 1
  },
  "userdoc": {
    "kind": "user",
    "methods": {},
    "version": 1
  }
}