{
  "contractName": "Counter",
  "abi": [
    {
      "inputs": [
        {
          "internalType": "uint256",
          "name": "_account",
          "type": "uint256"
        }
      ],
      "stateMutability": "nonpayable",
      "type": "constructor"
    },
    {
      "anonymous": false,
      "inputs": [
        {
          "indexed": false,
          "internalType": "uint256",
          "name": "_account",
          "type": "uint256"
        }
      ],
      "name": "ChangedAccount",
      "type": "event"
    },
    {
      "inputs": [],
      "name": "account",
      "outputs": [
        {
          "internalType": "uint256",
          "name": "",
          "type": "uint256"
        }
      ],
      "stateMutability": "view",
      "type": "function",
      "constant": true
    },
    {
      "inputs": [],
      "name": "increment",
      "outputs": [],
      "stateMutability": "nonpayable",
      "type": "function"
    },
    {
      "inputs": [],
      "name": "decrement",
      "outputs": [],
      "stateMutability": "nonpayable",
      "type": "function"
    }
  ],
  "bytecode": "0x608060405234801561001057600080fd5b506040516101a83803806101a88339818101604052602081101561003357600080fd5b8101908080519060200190929190505050806000819055505061014d8061005b6000396000f3fe608060405234801561001057600080fd5b50600436106100415760003560e01c80632baeceb7146100465780635dab242014610050578063d09de08a1461006e575b600080fd5b61004e610078565b005b6100586100c5565b6040518082815260200191505060405180910390f35b6100766100cb565b005b6000808154809291906001900391905055507f66fa1c2b3583d5170892981ebf47d92830fd4f76fe161878520277dd95b0e6536000546040518082815260200191505060405180910390a1565b60005481565b60008081548092919060010191905055507f66fa1c2b3583d5170892981ebf47d92830fd4f76fe161878520277dd95b0e6536000546040518082815260200191505060405180910390a156fea2646970667358221220a3daea9d80059142d5a8b17b2081b51b2c0302e61bed2c32d2da14f656b4b4e964736f6c63430007060033",
  "immutableReferences": {},
  "source": "// SPDX-License-Identifier: MIT\npragma solidity >=0.7.6 <0.8.0;\n\ncontract Counter {\n    // set as public to being able to know the amount\n    uint public account;\n\n    // create a new event in order to notify our methods\n    event ChangedAccount(uint _account);\n\n\n    constructor(uint _account){\n        account = _account;\n    }\n\n    function increment() external {\n        account++;\n        emit ChangedAccount(account);\n    }\n\n    function decrement() external {\n        account--;\n        emit ChangedAccount(account);\n    }\n\n}",
  "sourcePath": "/home/joseramon/workspace/atsistemas/formaciones/blockchain/code/part_2/contracts/Counter.sol",
  "compiler": {
    "name": "solc",
    "version": "0.7.6+commit.7338295f.Emscripten.clang"
  },
  "schemaVersion": "3.3.3",
  "updatedAt": "2021-01-22T18:38:24.718Z",
  "networkType": "ethereum",
  "devdoc": {
    "kind": "dev",
    "methods": {},
    "version": 1
  },
  "userdoc": {
    "kind": "user",
    "methods": {},
    "version": 1
  }
}